{
  "_format": "hh-sol-artifact-1",
  "contractName": "TodoList",
  "sourceName": "contracts/TodoList.sol",
  "abi": [
    {
      "anonymous": false,
      "inputs": [
        {
          "indexed": false,
          "internalType": "uint256",
          "name": "id",
          "type": "uint256"
        },
        {
          "indexed": false,
          "internalType": "string",
          "name": "title",
          "type": "string"
        },
        {
          "indexed": false,
          "internalType": "string",
          "name": "description",
          "type": "string"
        },
        {
          "indexed": false,
          "internalType": "bool",
          "name": "isDone",
          "type": "bool"
        }
      ],
      "name": "TodoCreated",
      "type": "event"
    },
    {
      "anonymous": false,
      "inputs": [
        {
          "indexed": false,
          "internalType": "uint256",
          "name": "id",
          "type": "uint256"
        }
      ],
      "name": "TodoDeleted",
      "type": "event"
    },
    {
      "anonymous": false,
      "inputs": [
        {
          "indexed": false,
          "internalType": "uint256",
          "name": "id",
          "type": "uint256"
        },
        {
          "indexed": false,
          "internalType": "string",
          "name": "description",
          "type": "string"
        }
      ],
      "name": "TodoDescriptionUpdated",
      "type": "event"
    },
    {
      "anonymous": false,
      "inputs": [
        {
          "indexed": false,
          "internalType": "uint256",
          "name": "id",
          "type": "uint256"
        },
        {
          "indexed": false,
          "internalType": "string",
          "name": "title",
          "type": "string"
        }
      ],
      "name": "TodoTitleUpdated",
      "type": "event"
    },
    {
      "anonymous": false,
      "inputs": [
        {
          "indexed": false,
          "internalType": "uint256",
          "name": "id",
          "type": "uint256"
        },
        {
          "indexed": false,
          "internalType": "bool",
          "name": "isDone",
          "type": "bool"
        }
      ],
      "name": "TodoToggled",
      "type": "event"
    },
    {
      "inputs": [
        {
          "internalType": "string",
          "name": "_title",
          "type": "string"
        },
        {
          "internalType": "string",
          "name": "_description",
          "type": "string"
        }
      ],
      "name": "createTodo",
      "outputs": [],
      "stateMutability": "nonpayable",
      "type": "function"
    },
    {
      "inputs": [
        {
          "internalType": "uint256",
          "name": "_id",
          "type": "uint256"
        }
      ],
      "name": "deleteTodo",
      "outputs": [],
      "stateMutability": "nonpayable",
      "type": "function"
    },
    {
      "inputs": [],
      "name": "getAllTodos",
      "outputs": [
        {
          "components": [
            {
              "internalType": "uint256",
              "name": "id",
              "type": "uint256"
            },
            {
              "internalType": "string",
              "name": "title",
              "type": "string"
            },
            {
              "internalType": "string",
              "name": "description",
              "type": "string"
            },
            {
              "internalType": "bool",
              "name": "isDone",
              "type": "bool"
            }
          ],
          "internalType": "struct TodoList.Todo[]",
          "name": "",
          "type": "tuple[]"
        }
      ],
      "stateMutability": "view",
      "type": "function"
    },
    {
      "inputs": [
        {
          "internalType": "uint256",
          "name": "_id",
          "type": "uint256"
        }
      ],
      "name": "getSpecificTodo",
      "outputs": [
        {
          "components": [
            {
              "internalType": "uint256",
              "name": "id",
              "type": "uint256"
            },
            {
              "internalType": "string",
              "name": "title",
              "type": "string"
            },
            {
              "internalType": "string",
              "name": "description",
              "type": "string"
            },
            {
              "internalType": "bool",
              "name": "isDone",
              "type": "bool"
            }
          ],
          "internalType": "struct TodoList.Todo",
          "name": "",
          "type": "tuple"
        }
      ],
      "stateMutability": "view",
      "type": "function"
    },
    {
      "inputs": [],
      "name": "todoCount",
      "outputs": [
        {
          "internalType": "uint256",
          "name": "",
          "type": "uint256"
        }
      ],
      "stateMutability": "view",
      "type": "function"
    },
    {
      "inputs": [
        {
          "internalType": "uint256",
          "name": "",
          "type": "uint256"
        }
      ],
      "name": "todos",
      "outputs": [
        {
          "internalType": "uint256",
          "name": "id",
          "type": "uint256"
        },
        {
          "internalType": "string",
          "name": "title",
          "type": "string"
        },
        {
          "internalType": "string",
          "name": "description",
          "type": "string"
        },
        {
          "internalType": "bool",
          "name": "isDone",
          "type": "bool"
        }
      ],
      "stateMutability": "view",
      "type": "function"
    },
    {
      "inputs": [
        {
          "internalType": "uint256",
          "name": "_id",
          "type": "uint256"
        }
      ],
      "name": "toggleCompleted",
      "outputs": [],
      "stateMutability": "nonpayable",
      "type": "function"
    },
    {
      "inputs": [
        {
          "internalType": "string",
          "name": "_description",
          "type": "string"
        },
        {
          "internalType": "uint256",
          "name": "_id",
          "type": "uint256"
        }
      ],
      "name": "updateTodoDescription",
      "outputs": [],
      "stateMutability": "nonpayable",
      "type": "function"
    },
    {
      "inputs": [
        {
          "internalType": "string",
          "name": "_title",
          "type": "string"
        },
        {
          "internalType": "uint256",
          "name": "_id",
          "type": "uint256"
        }
      ],
      "name": "updateTodoTitle",
      "outputs": [],
      "stateMutability": "nonpayable",
      "type": "function"
    }
  ],
  "bytecode": "0x608060405234801561001057600080fd5b50611893806100206000396000f3fe608060405234801561001057600080fd5b50600436106100935760003560e01c80636e7e3491116100665780636e7e349114610108578063bc8bc2b414610138578063caf7b4481461016b578063ce2bd5d514610187578063fe0dee17146101a557610093565b80633380b99f14610098578063455f5024146100b45780635b17894d146100d05780636e3c6738146100ec575b600080fd5b6100b260048036038101906100ad9190610dc6565b6101c3565b005b6100ce60048036038101906100c99190610e74565b6102cd565b005b6100ea60048036038101906100e59190610ea1565b6103b6565b005b61010660048036038101906101019190610e74565b610473565b005b610122600480360381019061011d9190610e74565b610651565b60405161012f9190611010565b60405180910390f35b610152600480360381019061014d9190610e74565b61081d565b604051610162949392919061109a565b60405180910390f35b61018560048036038101906101809190610ea1565b61097a565b005b61018f610a37565b60405161019c9190611219565b60405180910390f35b6101ad610bdf565b6040516101ba919061123b565b60405180910390f35b6000808154809291906101d590611285565b9190505550600060405180608001604052806000548152602001848152602001838152602001600015158152509050600181908060018154018082558091505060019003906000526020600020906004020160009091909190915060008201518160000155602082015181600101908161024f91906114d9565b50604082015181600201908161026591906114d9565b5060608201518160030160006101000a81548160ff02191690831515021790555050507f65f9bd9293feaaea2c4280896b5174a3edbe343c97f825a52154b62e0ba12580600054848460006040516102c0949392919061109a565b60405180910390a1505050565b6001805490508110610314576040517f08c379a000000000000000000000000000000000000000000000000000000000815260040161030b906115f7565b60405180910390fd5b60006001828154811061032a57610329611617565b5b906000526020600020906004020190508060030160009054906101000a900460ff16158160030160006101000a81548160ff0219169083151502179055507fb50a16255ec610e07f1e0b3a7b9aa1d91e047f81010699695a0cbea58f5d2ba0828260030160009054906101000a900460ff166040516103aa929190611646565b60405180910390a15050565b60018054905081106103fd576040517f08c379a00000000000000000000000000000000000000000000000000000000081526004016103f4906115f7565b60405180910390fd5b60006001828154811061041357610412611617565b5b906000526020600020906004020190508281600201908161043491906114d9565b507f7f1bcc3070f3fda5a887f01457df7fc231e17021bbb85ec9bedd48d6028dc112828460405161046692919061166f565b60405180910390a1505050565b60018054905081106104ba576040517f08c379a00000000000000000000000000000000000000000000000000000000081526004016104b1906115f7565b60405180910390fd5b6000808154809291906104cc9061169f565b919050555060008190505b600180805490506104e891906116c8565b8110156105af57600180826104fd91906116fc565b8154811061050e5761050d611617565b5b9060005260206000209060040201600182815481106105305761052f611617565b5b9060005260206000209060040201600082015481600001556001820181600101908161055c9190611746565b50600282018160020190816105719190611746565b506003820160009054906101000a900460ff168160030160006101000a81548160ff02191690831515021790555090505080806001019150506104d7565b5060018054806105c2576105c161182e565b5b60019003818190600052602060002090600402016000808201600090556001820160006105ef9190610be5565b6002820160006105ff9190610be5565b6003820160006101000a81549060ff0219169055505090557f1072e4eeea43a52d09f5b6dfc870a079948f706133840ce9239aebc57fabb65f81604051610646919061123b565b60405180910390a150565b610659610c25565b60018054905082106106a0576040517f08c379a0000000000000000000000000000000000000000000000000000000008152600401610697906115f7565b60405180910390fd5b600182815481106106b4576106b3611617565b5b9060005260206000209060040201604051806080016040529081600082015481526020016001820180546106e7906112fc565b80601f0160208091040260200160405190810160405280929190818152602001828054610713906112fc565b80156107605780601f1061073557610100808354040283529160200191610760565b820191906000526020600020905b81548152906001019060200180831161074357829003601f168201915b50505050508152602001600282018054610779906112fc565b80601f01602080910402602001604051908101604052809291908181526020018280546107a5906112fc565b80156107f25780601f106107c7576101008083540402835291602001916107f2565b820191906000526020600020905b8154815290600101906020018083116107d557829003601f168201915b505050505081526020016003820160009054906101000a900460ff1615151515815250509050919050565b6001818154811061082d57600080fd5b9060005260206000209060040201600091509050806000015490806001018054610856906112fc565b80601f0160208091040260200160405190810160405280929190818152602001828054610882906112fc565b80156108cf5780601f106108a4576101008083540402835291602001916108cf565b820191906000526020600020905b8154815290600101906020018083116108b257829003601f168201915b5050505050908060020180546108e4906112fc565b80601f0160208091040260200160405190810160405280929190818152602001828054610910906112fc565b801561095d5780601f106109325761010080835404028352916020019161095d565b820191906000526020600020905b81548152906001019060200180831161094057829003601f168201915b5050505050908060030160009054906101000a900460ff16905084565b60018054905081106109c1576040517f08c379a00000000000000000000000000000000000000000000000000000000081526004016109b8906115f7565b60405180910390fd5b6000600182815481106109d7576109d6611617565b5b90600052602060002090600402019050828160010190816109f891906114d9565b507ffc10edc136d89366dc9cff7d4adbee8fc513c249e232b12cef53df4dcbcbabd98284604051610a2a92919061166f565b60405180910390a1505050565b60606001805480602002602001604051908101604052809291908181526020016000905b82821015610bd6578382906000526020600020906004020160405180608001604052908160008201548152602001600182018054610a98906112fc565b80601f0160208091040260200160405190810160405280929190818152602001828054610ac4906112fc565b8015610b115780601f10610ae657610100808354040283529160200191610b11565b820191906000526020600020905b815481529060010190602001808311610af457829003601f168201915b50505050508152602001600282018054610b2a906112fc565b80601f0160208091040260200160405190810160405280929190818152602001828054610b56906112fc565b8015610ba35780601f10610b7857610100808354040283529160200191610ba3565b820191906000526020600020905b815481529060010190602001808311610b8657829003601f168201915b505050505081526020016003820160009054906101000a900460ff16151515158152505081526020019060010190610a5b565b50505050905090565b60005481565b508054610bf1906112fc565b6000825580601f10610c035750610c22565b601f016020900490600052602060002090810190610c219190610c4f565b5b50565b60405180608001604052806000815260200160608152602001606081526020016000151581525090565b5b80821115610c68576000816000905550600101610c50565b5090565b6000604051905090565b600080fd5b600080fd5b600080fd5b600080fd5b6000601f19601f8301169050919050565b7f4e487b7100000000000000000000000000000000000000000000000000000000600052604160045260246000fd5b610cd382610c8a565b810181811067ffffffffffffffff82111715610cf257610cf1610c9b565b5b80604052505050565b6000610d05610c6c565b9050610d118282610cca565b919050565b600067ffffffffffffffff821115610d3157610d30610c9b565b5b610d3a82610c8a565b9050602081019050919050565b82818337600083830152505050565b6000610d69610d6484610d16565b610cfb565b905082815260208101848484011115610d8557610d84610c85565b5b610d90848285610d47565b509392505050565b600082601f830112610dad57610dac610c80565b5b8135610dbd848260208601610d56565b91505092915050565b60008060408385031215610ddd57610ddc610c76565b5b600083013567ffffffffffffffff811115610dfb57610dfa610c7b565b5b610e0785828601610d98565b925050602083013567ffffffffffffffff811115610e2857610e27610c7b565b5b610e3485828601610d98565b9150509250929050565b6000819050919050565b610e5181610e3e565b8114610e5c57600080fd5b50565b600081359050610e6e81610e48565b92915050565b600060208284031215610e8a57610e89610c76565b5b6000610e9884828501610e5f565b91505092915050565b60008060408385031215610eb857610eb7610c76565b5b600083013567ffffffffffffffff811115610ed657610ed5610c7b565b5b610ee285828601610d98565b9250506020610ef385828601610e5f565b9150509250929050565b610f0681610e3e565b82525050565b600081519050919050565b600082825260208201905092915050565b60005b83811015610f46578082015181840152602081019050610f2b565b60008484015250505050565b6000610f5d82610f0c565b610f678185610f17565b9350610f77818560208601610f28565b610f8081610c8a565b840191505092915050565b60008115159050919050565b610fa081610f8b565b82525050565b6000608083016000830151610fbe6000860182610efd565b5060208301518482036020860152610fd68282610f52565b91505060408301518482036040860152610ff08282610f52565b91505060608301516110056060860182610f97565b508091505092915050565b6000602082019050818103600083015261102a8184610fa6565b905092915050565b61103b81610e3e565b82525050565b600082825260208201905092915050565b600061105d82610f0c565b6110678185611041565b9350611077818560208601610f28565b61108081610c8a565b840191505092915050565b61109481610f8b565b82525050565b60006080820190506110af6000830187611032565b81810360208301526110c18186611052565b905081810360408301526110d58185611052565b90506110e4606083018461108b565b95945050505050565b600081519050919050565b600082825260208201905092915050565b6000819050602082019050919050565b60006080830160008301516111316000860182610efd565b50602083015184820360208601526111498282610f52565b915050604083015184820360408601526111638282610f52565b91505060608301516111786060860182610f97565b508091505092915050565b600061118f8383611119565b905092915050565b6000602082019050919050565b60006111af826110ed565b6111b981856110f8565b9350836020820285016111cb85611109565b8060005b8581101561120757848403895281516111e88582611183565b94506111f383611197565b925060208a019950506001810190506111cf565b50829750879550505050505092915050565b6000602082019050818103600083015261123381846111a4565b905092915050565b60006020820190506112506000830184611032565b92915050565b7f4e487b7100000000000000000000000000000000000000000000000000000000600052601160045260246000fd5b600061129082610e3e565b91507fffffffffffffffffffffffffffffffffffffffffffffffffffffffffffffffff82036112c2576112c1611256565b5b600182019050919050565b7f4e487b7100000000000000000000000000000000000000000000000000000000600052602260045260246000fd5b6000600282049050600182168061131457607f821691505b602082108103611327576113266112cd565b5b50919050565b60008190508160005260206000209050919050565b60006020601f8301049050919050565b600082821b905092915050565b60006008830261138f7fffffffffffffffffffffffffffffffffffffffffffffffffffffffffffffffff82611352565b6113998683611352565b95508019841693508086168417925050509392505050565b6000819050919050565b60006113d66113d16113cc84610e3e565b6113b1565b610e3e565b9050919050565b6000819050919050565b6113f0836113bb565b6114046113fc826113dd565b84845461135f565b825550505050565b600090565b61141961140c565b6114248184846113e7565b505050565b5b818110156114485761143d600082611411565b60018101905061142a565b5050565b601f82111561148d5761145e8161132d565b61146784611342565b81016020851015611476578190505b61148a61148285611342565b830182611429565b50505b505050565b600082821c905092915050565b60006114b060001984600802611492565b1980831691505092915050565b60006114c9838361149f565b9150826002028217905092915050565b6114e282610f0c565b67ffffffffffffffff8111156114fb576114fa610c9b565b5b61150582546112fc565b61151082828561144c565b600060209050601f8311600181146115435760008415611531578287015190505b61153b85826114bd565b8655506115a3565b601f1984166115518661132d565b60005b8281101561157957848901518255600182019150602085019450602081019050611554565b868310156115965784890151611592601f89168261149f565b8355505b6001600288020188555050505b505050505050565b7f496e76616c696420746f646f206974656d206964000000000000000000000000600082015250565b60006115e1601483611041565b91506115ec826115ab565b602082019050919050565b60006020820190508181036000830152611610816115d4565b9050919050565b7f4e487b7100000000000000000000000000000000000000000000000000000000600052603260045260246000fd5b600060408201905061165b6000830185611032565b611668602083018461108b565b9392505050565b60006040820190506116846000830185611032565b81810360208301526116968184611052565b90509392505050565b60006116aa82610e3e565b9150600082036116bd576116bc611256565b5b600182039050919050565b60006116d382610e3e565b91506116de83610e3e565b92508282039050818111156116f6576116f5611256565b5b92915050565b600061170782610e3e565b915061171283610e3e565b925082820190508082111561172a57611729611256565b5b92915050565b60008154905061173f816112fc565b9050919050565b81810361175457505061182c565b61175d82611730565b67ffffffffffffffff81111561177657611775610c9b565b5b61178082546112fc565b61178b82828561144c565b6000601f8311600181146117ba57600084156117a8578287015490505b6117b285826114bd565b865550611825565b601f1984166117c88761132d565b96506117d38661132d565b60005b828110156117fb578489015482556001820191506001850194506020810190506117d6565b868310156118185784890154611814601f89168261149f565b8355505b6001600288020188555050505b5050505050505b565b7f4e487b7100000000000000000000000000000000000000000000000000000000600052603160045260246000fdfea2646970667358221220b94c142cfe0c198953cdfb26437a2878f29777889abfe5359060387a35a063ad64736f6c63430008180033",
  "linkReferences": {},
  "deployedLinkReferences": {}
}